:10000000EDC0000006C1000004C1000002C10000F4
:1000100000C10000FEC00000FCC00000FAC00000EB
:10002000F8C00000F6C00000C2C4000039C50000DE
:10003000F0C00000EEC00000ECC00000EAC000000C
:10004000E8C00000E6C00000E4C00000E2C000001C
:10005000E0C00000DEC00000DCC0000007C40000FB
:10006000D8C00000D6C00000D4C00000D2C000003C
:10007000D0C00000CEC00000CCC00000CAC000004C
:10008000C8C00000C6C00000C4C00000C2C000005C
:10009000C0C00000BEC00000BCC00000BAC000006C
:1000A000B8C00000B6C00000B4C00000AE029002AC
:1000B000D002D002D002B602C002D002C802D002E2
:1000C0009C02A40201230223042308238023012984
:1000D0000229042908294026802640298029102346
:1000E00020234023802F402F202F102F022F012F5D
:1000F00010292029402C7DFD7DFB7DF77DEF7DDFE4
:100100007E7F7EBF7EDF7EEF7EFD7EFE7DFE000178
:100110000000BF0112000200007C01430003000048
:10012000780104010309045E011802030904460171
:10013000160303090438010C0C03310032003300AC
:100140003400350000001603550053004200200023
:10015000530065007200690061006C000000180324
:100160005400650065006E0073007900640075003E
:1001700069006E006F0000000403090409024300D7
:10018000020100C03209040000010202010005243E
:1001900000100105240100010424020605240600C4
:1001A000010705820308004009040100020A00005B
:1001B000000705030240000007058402400000120A
:1001C00001000202000020C01683040001010203A6
:1001D000010001C1020180360181360011241FBED9
:1001E000CFEFDAE0DEBFCDBF11E0A0E0B1E0E0ED9F
:1001F000FDE002C005900D92A631B107D9F721E0CC
:10020000A6E1B1E001C01D92A532B207E1F7ADD57C
:10021000DDC5F6CE80911601CFD1809108015ED167
:10022000809106015BD18091040158D18091020137
:1002300055D18091000152D1E0910601F091070162
:10024000FF27E3D1E0910401F0910501FF27DDD103
:10025000E0910801F0910901FF27D7D168EE73E022
:1002600080E090E043D3E0910801F0910901FF277D
:10027000D2C10895CF93DF9320910C0130910D01ED
:1002800080910A0190910B01281739070CF0CFC01B
:1002900068EE73E080E090E029D3E0911601F091E0
:1002A0001701FF274BD220910C0130910D01E11174
:1002B0000DC0E0910801F0910901FF27A6D12B5F45
:1002C0003F4F3093190120931801A7C0E091180106
:1002D000F09119012E173F0799F4E0910601F09172
:1002E0000701FF2798D1E0910801F0910901FF274C
:1002F00092D1E0910401F0910501FF278CD18DC0CE
:10030000C0910A01D0910B01CF010596BE0131D5F4
:100310002817390779F5E0910401F0910501FF27CD
:1003200074D1C0E2D0E0E0910001F0910101FF271B
:100330006CD162E170E080E090E0D8D2E091000101
:10034000F0910101FF2767D16BE270E080E090E05F
:10035000CDD2219741F780910C0190910D01029629
:1003600090930D0180930C0160E070E0809100019A
:10037000C6D053C0CF010A96BE01FBD42817390757
:1003800009F04BC0C8E2D0E0E0910201F091030116
:10039000FF273BD163E270E080E090E0A7D2E091DC
:1003A0000201F0910301FF2736D16FE070E080E099
:1003B00090E09CD2219741F7C5E0D0E06CE870E076
:1003C000809100019CD064E670E080E090E08ED2E5
:1003D00060E070E08091000192D06FED70E080915C
:1003E00002018DD06CE771E080E090E07FD260E0A8
:1003F00070E08091020183D0219701F7E09106011E
:10040000F0910701FF2701D180910C0190910D011E
:10041000049690930D0180930C0180910C019091B2
:100420000D01019690930D0180930C0125CF109240
:100430000D0110920C01DF91CF9108951DBA109219
:1004400068001CBC10BE1FBA10927A0010926E0099
:1004500010926F0010927100109272001092C900F9
:10046000ECEBF0E0108214B817B81AB81DB810BA47
:10047000108215B818B81BB81EB811BA0895F894B0
:10048000E1E6F0E020E82083108283E084BD85BDB2
:10049000EEE6F0E080818160808381E080938000DF
:1004A00092E09093810080939000909391009093BC
:1004B000C00094E09093C1008093C2008093C30079
:1004C0001092C40086E880937A0020937B001092FB
:1004D0007E0010927D0049D278940895893170F49D
:1004E000E4ECF0E0880FE80FF11D9591E491F0E065
:1004F0008FB7F8942181922B91838FBF08950F932A
:100500001F93CF93C82F8B01E9DF8C2F90E0FC0164
:100510003497EC30F10508F043C0EA5AFF4F3CC471
:100520000115110521F4589884B58F7D03C008BDCD
:1005300084B5806284BD3CC010938900009388001C
:1005400080918000806807C010938B0000938A0020
:10055000809180008062809380002AC010938D007B
:1005600000938C00809180008860F5CF10939900F3
:10057000009398008091900080688093900018C04C
:100580000093CF008091C00080688093C00010C0AD
:100590000093D2008091C20088608093C20008C09E
:1005A000EC2FF0E00038110514F435D001C02DD047
:1005B000CF911F910F910895893130F5A5EFA80FC4
:1005C000AC3048F4E6EFF0E0AA0FEA0FF11DA59178
:1005D000B0E0959103C09FEFA0E0B0E0E4ECF0E064
:1005E000880FE80FF11D2591E491F0E03FB7F894F2
:1005F0008181422F4095842381838281282B22830D
:10060000EC91E923EC933FBF0895E93150F4EE0FEC
:10061000EE5EFC4F0994E93120F4EE0FEC5BFC4FE9
:1006200009940895289A0895299A08952A9A089570
:100630002B9A08952F9A6AC0589A58C0599A0895CB
:100640005A9A08955B9A0895469A66C0479A6AC076
:100650005E9A08955F9A6CC02C9A08952D9A4AC0AC
:100660002E9A4EC08F9A08958E9A08958D9A089565
:100670008C9A0895899A0895889A08955C9A0895A5
:100680005D9A0895769A089528980895299808956E
:100690002A9808952B9808952F9838C0589826C006
:1006A000599808955A9808955B980895469834C0CB
:1006B000479838C05E9808955F983AC02C9808957E
:1006C0002D9818C02E981CC08F9808958E98089564
:1006D0008D9808958C98089589980895889808951C
:1006E0005C9808955D98089576980895E4B5EF7D37
:1006F000E4BD0895E0918000EF77E09380000895D5
:10070000E0918000EF7DE09380000895E09180000B
:10071000E77FE09380000895E0919000EF77E09309
:1007200090000895E091C000EF77E093C000089535
:10073000E091C200E77FE093C2000895E93130F410
:10074000EE0FEE0FFF27E655FC4F0994EE270895B4
:10075000E1E00895E3B1E170D9F70895E3B1E27003
:10076000B9F70895E3B1E47099F70895E3B1E8703B
:1007700079F70895E3B1E07859F70895E9B1E170A8
:1007800039F70895E9B1E27019F70895E9B1E47015
:10079000F9F60895E9B1E870D9F60895E6B1E07484
:1007A000B9F60895E6B1E07899F60895E9B1E074F4
:1007B00079F60895E9B1E07859F60895E3B1E0716A
:1007C00039F60895E3B1E07219F60895E3B1E074E3
:1007D00029F50895EFB1E07809F50895EFB1E074D7
:1007E000E9F40895EFB1E072C9F40895EFB1E07152
:1007F000A9F40895EFB1E27089F40895EFB1E170C2
:1008000069F40895E9B1E07149F40895E9B1E0723D
:1008100029F40895ECB1E07409F40895E1E0089535
:10082000F89484B7877F84BF809160008061809353
:1008300060001092600080E29EE40197F1F781E091
:100840008093E00080E28093D80080E69AEE0197E2
:10085000F1F7F4DD0C94003FFFCFF894EFDD80E674
:100860009AEE0197F1F70C940000FFCF8F938FB7AA
:100870008F9380911A018D5F8D37D0F480931A0188
:1008800080911B018F5F80931B01D8F080911C0128
:100890008F4F80931C01A8F080911D018F4F809392
:1008A0001D0178F080911E018F4F80931E0109C0B9
:1008B0008D5780931A0180911B018E5F80931B01DD
:1008C00028F780911F018C5F80931F0158F0809161
:1008D00020018F4F8093200128F0809121018F4FBC
:1008E000809321018F918FBF8F911895CF92DF92C6
:1008F000EF92FF926B017C0119D09B01C114D104CE
:10090000E104F10471F012D0621B730B683E734076
:10091000A8F381E0C81AD108E108F10828513C4F3A
:10092000EDCFFF90EF90DF90CF9008950FB6F89441
:1009300066B515B270911F0180912001909121013F
:100940000FBE10FE05C06F3F19F07C5F8F4F9F4FA9
:1009500011240024660F001C660F001C70290895E6
:100960008091E80080FFFCCF08958091D80087FF38
:1009700002C085FF1BC081E08093D70080EA80938E
:10098000D80082E189BD09B400FEFDCF80E98093E3
:10099000D8001092E00010922701109226011092C8
:1009A00025011092E1008DE08093E20008951F92EE
:1009B0000F920FB60F9211242F933F934F935F9393
:1009C0006F937F938F939F93AF93BF93EF93FF9317
:1009D0009091E1001092E10093FF11C01092E900A4
:1009E00081E08093EB001092EC0082E28093ED00B6
:1009F00088E08093F000109227011092250192FF69
:100A00001DC0809127018823C9F08091240188238B
:100A100059F0815080932401811106C084E08093B5
:100A2000E9008AE38093E80080912301882331F074
:100A3000815080932301811101C0F2DE90FF0CC030
:100A400080E18093E2001092270181E080932601EB
:100A500080EA8093D80019BC80912601882379F020
:100A600094FF0DC082E189BD09B400FEFDCF80E98D
:100A70008093D8008DE08093E20010922601FF91D0
:100A8000EF91BF91AF919F918F917F916F915F9106
:100A90004F913F912F910F900FBE0F901F9018957F
:100AA0001F920F920FB60F921124EF92FF920F93A5
:100AB0001F932F933F934F935F936F937F938F93E6
:100AC0009F93AF93BF93CF93EF93FF931092E9005F
:100AD0008091E80083FF30C1C091F1008091F10066
:100AE000E090F100F090F1000091F1001091F10020
:100AF0002091F1003091F10092EF9093E800863060
:100B000009F03FC086E0EEE0F1E0459155914E15C9
:100B10005F0511F0359615C0459155914017510765
:100B200011F033960EC04591559184912F3F3105B8
:100B300019F010F02FEF30E0281708F4822F3EEF65
:100B400008C0815011F7F8C0891B3093E800882352
:100B5000A9F09091E800292F2570D9F392FDEFC0FC
:100B6000982F813208F090E2292F222369F3FA01AD
:100B700045914093F100AF012150F7CF903249F3F6
:100B8000DEC0853049F48EEF8093E800E9DE8E2DDB
:100B900080688093E300D3C0893001F5C111CCC0D7
:100BA000E092270110922501109224018EEF80938C
:100BB000E80081E0E1EDF1E08093E9009591909308
:100BC000EB00992331F095919093EC0095919093DF
:100BD000ED008F5F853081F78EE1A9C0883049F440
:100BE000C03809F0A9C0BCDE809127018093F100D4
:100BF0007DC0813279F4C13A09F09EC0B1DEEEE0E9
:100C0000F1E087E08E0F90819093F10031968E1382
:100C1000FACF6CC0803209F047C0C13209F08CC0F5
:100C20008091E80082FFFCCFEEE0F1E087E08E0FDC
:100C30009091F100908331968E13FACF8BEF8093D1
:100C4000E8008EEF8093E80030910E0140910F0193
:100C5000809110012091110190E0A0E0B0E0DC0152
:100C600099278827942B832BB22B86389105A105D1
:100C7000B10521F48FE08093230161C0863991058D
:100C8000A105B10509F05BC084E08093E9009FEF06
:100C90008091EE00837039F09093E8008091E80035
:100CA00082FDFCCFF5CFD9DD823231F4C13209F0BB
:100CB00043C0E092250104C0833221F4C132E1F542
:100CC0004FDE14C0811116C04BDEC23851F40093C0
:100CD000E9008091EB0085FB882780F91092E900FC
:100CE00001C080E08093F1001092F1008EEF8093BC
:100CF000E80025C0982F9D7F9130F1F4C230E1F4D7
:100D0000EF28D1F40F779FEF900F9630A8F49EEF65
:100D10009093E8000093E900833071F089E18093BB
:100D2000EB0081E090E001C0880F0A95EAF780931C
:100D3000EA001092EA0003C081E28093EB00FF9189
:100D4000EF91CF91BF91AF919F918F917F916F91D3
:100D50005F914F913F912F911F910F91FF90EF90D5
:100D60000F900FBE0F901F90189589DB53DA82DA2F
:100D7000FECF97FB072E16F4009406D077FD08D01F
:100D800011D007FC05D03EF4909581959F4F0895B2
:100D9000709561957F4F0895EE0FFF1F0590F491B8
:100DA000E02D0994AA1BBB1B51E107C0AA1FBB1F62
:100DB000A617B70710F0A61BB70B881F991F5A95E7
:100DC000A9F780959095BC01CD010895F894FFCFC7
:100DD00005000400030001000B008051207600E1B3
:060DE00000000000080005
:00000001FF
